:020000040804EE
:100000000000082415710608617106088966050854
:100010008F660508956605089B66050800000000C8
:100020000000000000000000000000003D2D04085A
:100030006171060800000000D72D0408E72D0408B0
:100040006171060861710608617106086171060830
:100050006171060861710608617106086171060820
:100060006171060861710608617106086171060810
:100070006171060861710608617106086171060800
:10008000617106086171060861710608B17F060892
:10009000C17F0608BD7F0608CD7F0608617106088E
:1000A00061710608617106086171060861710608D0
:1000B00061710608617106086171060861710608C0
:1000C00061710608617106086171060861710608B0
:1000D00061710608617106086171060861710608A0
:1000E0006171060861710608000000006171060870
:1000F0006171060861710608617106086171060880
:1001000061710608916E0608617106086171060842
:10011000617106086171060861710608617106085F
:10012000617106086171060861710608617106084F
:1001300061710608935B0408617106086171060825
:1001400061710608617106080000000000000000EF
:10015000617106086171060861710608617106081F
:10016000617106086171060861710608617106080F
:1001700061710608617106086171060800000000DF
:1001800061710608617106086171060861710608EF
:1001900061710608617106086171060861710608DF
:1001A00061710608617106086171060861710608CF
:1001B00061710608617106086171060861710608BF
:1001C00061710608617106086171060861710608AF
:1001D000617106086171060861710608617106089F
:1001E000617106086171060861710608617106088F
:1001F000617106086171060861710608617106087F
:10020000617106086171060861710608617106086E
:10021000617106086171060861710608617106085E
:10022000617106086171060861710608617106084E
:10023000617106081171060861710608617106088E
:10024000617106086171060861710608617106082E
:10025000617106086171060861710608617106081E
:10026000617106086171060861710608617106080E
:1002700061710608617106086171060861710608FE
:1002800061710608617106086171060800000000CE
:10029000617106086171060810B5054C237833B901
:1002A000044B13B10448AFF300800123237010BD49
:1002B000C0270224000000008876090808B5034B17
:1002C0001BB103490348AFF3008008BD00000000E4
:1002D000C427022488760908154B002B08BF134B4E
:1002E0009D46A3F5803A00218B460F461348144AD9
:1002F000121A42F03DFB0F4B002B00D098470E4BDB
:10030000002B00D098470020002104000D000D486C
:10031000002802D00C4817F057F941F0EBFC200000
:10032000290004F039FF17F069FB00BF0000080046
:100330000000082400000000F5500408C027022433
:1003400068F10324C975050800000000002070470B
:100350000020704700207047002070470020704741
:100360007047036853F8683C184470477047036847
:1003700053F8743C1844704738B504460D46A1B98B
:10038000136823609DB9526853F8843CE250D4F856
:1003900080301BB19B6804F174009847AB0702D50D
:1003A000204610F099FD204638BD024BE9E7014A8E
:1003B0000023EBE7C8CE08080A460021FFF7DCBFA0
:1003C00000220221FFF7D8BFD0F800C0ACF1240C06
:1003D000DCF800C06044F3E710B50446FFF7F0FF17
:1003E0008421204617F062FB204610BDD0F800C0E3
:1003F000ACF1240CDCF800C06044EDE738B50D46E4
:100400000431044610F0AFF9EB682046C4F884309C
:1004100053F8843C2A692344C3F884202B68236062
:1004200053F8843C6A69E250AB69C4F8843038BD43
:10043000084B10B5036013460A460749044610F0FE
:1004400092F9064B2046236003F58073C4F884308C
:1004500010BD00BF08D00808E4BC080880BD08082B
:1004600070B5074B044605460E4644F8043B0B1D89
:100470000FCB84E80F00337D28462B7570BD00BF7D
:1004800084C3080870B56423CCB0A822C0210093AF
:1004900004A80123002402F03FFA08230AA83AAD79
:1004A00000931A46194634AE02F036FA0123A82208
:1004B000C021009310A802F02FFAFF23009416A881
:1004C0001A46194602F028FA04A91CA8FFF7C8FF2B
:1004D0000AA922A8FFF7C4FF10A928A8FFF7C0FFA8
:1004E00016A92EA8FFF7BCFF1CA946A8FFF7B8FF66
:1004F00022A940A8FFF7B4FF28A92846FFF7B0FFBC
:100500002EA93046FFF7ACFF4EF660234FF47A6217
:1005100021460748CDE90232CDE9005640AB46AA54
:1005200000F05EFA03482AF04DFA4CB070BD00BFEF
:10053000E0270224DC270224704710B50446006837
:1005400008B117F0FDFA204610BD000070B5044652
:100550000D4609BB1368236005BB516953F8843C01
:10056000E150F5B99169234643F8841FDDB902F1E2
:100570000C010868C4F884004E6850F8841C5E5072
:100580009DB9111D2046FFF717FFAB0702D5204686
:1005900010F0A2FC204670BD054BDCE704490023A7
:1005A000DEE70449DFE70449E3E70449EAE700BF7F
:1005B00080BD080880BE0808ECBC0808E4BC080838
:1005C00000220221FFF7C2BFA0F18400F8E7D0F8B3
:1005D00000C0ACF1240CDCF800C06044F0E700007F
:1005E0000E4B10B5044640F8883BFFF7E9FF0C4B73
:1005F000204640F8643BFFF7A0FF04F14C00FFF7F2
:100600009CFF04F13400FFF798FF04F11C00FFF792
:1006100094FF201DFFF791FF204610BD4CBF080836
:1006200004BF080810B50446FFF7CAFF882120461A
:1006300017F03CFA204610BDA0F18400F2E7D0F894
:1006400000C0ACF1240CDCF800C06044EAE70A46C4
:100650000021FFF77BBF000038B5204C204921481E
:100660002AF080F9204B2046002240F8043B114636
:1006700010F0B5FE002204F11C00114610F0AFFE90
:10068000002204F13400114610F0A9FE002204F10A
:100690004C00114610F0A3FE002204F16400114644
:1006A00010F09DFE0023114AE36784F88430226035
:1006B00005F066FC05460FF0ECFD024604F18800EB
:1006C0002946FFF7B5FE0A4B20460A4AC4F8103106
:1006D0000949BDE8384016F075BF00BFE027022485
:1006E000790D8128DC27022404BF08084CBF0808C4
:1006F0000C03032400000024E105040800207047D7
:100700000268322313B50093946A40F21342A04763
:1007100002B010BD13B5046800931346A46A40F2FA
:100720001342A04702B010BD13B5322304680093F2
:10073000A46AA04702B010BD006903681B6918478E
:10074000006903689B691847006903685B6918477B
:1007500000690368DB6818470120704710B504463C
:10076000006903685B6A9847A069002807DB0021DD
:10077000C0B202F07DFA0021207E02F03BFAE0696F
:10078000002809DB0021C0B202F072FA207F0021AC
:10079000BDE8104002F02EBA10BD70B504460D46FB
:1007A00016460499C5622286026A002A08BF1A46C4
:1007B000436A002B18BF1946026241628069002813
:1007C00007DB0121C0B202F015FA0021207E02F001
:1007D0004FFAE069002807DB0121C0B202F00AFAF3
:1007E0000121207F02F044FA002332462946206985
:1007F00084F828300123BDE8704000F0A9BE03460C
:1008000090F8280018B1186903681B68184701227E
:100810005A60704770B500251E464FF47A7304463F
:100820000161C0E901530A4B0360104602F02EF942
:100830006061304602F02AF9A061BDF9100002F0B3
:1008400025F9656284F82850C4E90705204670BD83
:1008500010BF080810B504468069002807DBC0B245
:10086000012102F005FA206A08B102F051F90123D2
:1008700084F8283010BD10B5044600690368DB68B1
:100880009847A369002B07DB606A08B102F040F9C2
:100890000021207E02F0ECF9002384F8283010BDFE
:1008A000C069002803DB0021C0B202F0E1B9704743
:1008B000C069002803DB0121C0B202F0D9B970473A
:1008C0001D2307B51A22009303491E230348FFF78F
:1008D000A1FF03B05DF804FBCC2D0224F82802240C
:1008E000D0F8100118B1036853F8843C18447047DD
:1008F0001B4B002270B51146044640F8043B10F033
:100900006EFD002204F11C0004F18805114610F070
:1009100066FD002204F13400114610F060FD002253
:1009200004F14C00114610F05AFD002204F164005D
:10093000114610F054FD00230A4AE367226084F850
:10094000843005F01DFB06460FF0A3FC024631463D
:100950002846FFF76DFDC4F81051204670BD00BF5A
:1009600004BF08084CBF0808D0F8100108B5036898
:100970009B6D984701280CBF0120022008BDD0F8CC
:10098000103170B504461646DBB102F0ADF80546ED
:10099000D4F8100100210368DB6D9847D4F81001EA
:1009A00003689B6C984702F09FF8401BB04210D23E
:1009B0002046FFF7D9FF01280BD00A2002F0A6F845
:1009C000F1E7D0F814319847D4F810010028DCD1B1
:1009D00070BD2046FFF7C8FF431E58425841F7E755
:1009E00070B59AB01D4604460E4602A81146FFF7A0
:1009F00037FD294608A814ADFFF732FD1E990EA851
:100A0000FFF72EFD1F992846FFF72AFD08AA00953B
:100A10000EAB02A9204600F010F9D4F81001002115
:100A200003685B6C9847D4F8100104F13402211D6F
:100A300003681D6C04F11C03A847D4F8103104F1BD
:100A40004C011A6852F8840C1A581844556900224F
:100A5000A84731462046DDE92023FFF790FF1AB072
:100A600070BD000010B5054C2046FFF741FF204641
:100A7000034A0449BDE8104016F0A4BD2C29022405
:100A800000000024E105040870470B6803604B6810
:100A900043608B6883607047C3680BB19B681847DD
:100AA0007047CB68C3600BB15B681847704770B57F
:100AB0008CB00C46112206460125002101A841F008
:100AC00057FF002120468DF8045001F037FF0378CE
:100AD000294620468DF8053001F030FF03780221C9
:100AE00020468DF8063001F029FF037803212046C7
:100AF0008DF8073001F022FF0378002201A906A833
:100B00008DF8083010F0D0FB06A9301D10F08EFCD7
:100B100006A8FFF712FD0CB070BD70B58CB00C4686
:100B2000112206460125002101A841F021FF0021E4
:100B300020468DF8045001F001FF03782946204635
:100B40008DF8053001F0FAFE0378022120468DF879
:100B5000063001F0F3FE0378032120468DF80730BC
:100B600001F0ECFE0378002201A906A88DF80830F8
:100B700010F09AFB06A906F14C0010F057FC06A8ED
:100B8000FFF7DBFC0CB070BD30B587B004461546EE
:100B90006846FFF765FC69462046FFF788FF29464F
:100BA0006846FFF75DFC69462046FFF7B6FF07B0D1
:100BB00030BD70B58CB0164605461C466846FFF73A
:100BC0004FFC314606A80126FFF74AFC06AA6946F3
:100BD0002846FFF7D9FF11220021684641F0C8FEE0
:100BE000002120468DF8006001F0A8FE0378314610
:100BF00020468DF8013001F0A1FE03780221204645
:100C00008DF8023001F09AFE0378032120468DF81A
:100C1000033001F093FE03780022694606A88DF8A0
:100C2000043010F041FB06A905F11C0010F0FEFB9A
:100C300006A8FFF782FC0CB070BD70B592B01646E6
:100C40001D4604466846FFF70BFC314606A8FFF731
:100C500007FC29460CA80125FFF702FC0CAB06AAED
:100C600069462046FFF7A5FF1122002106A841F0A2
:100C70007FFE002116988DF8185001F05FFE037872
:100C8000294616988DF8193001F058FE0378022194
:100C900016988DF81A3001F051FE0378032116984A
:100CA0008DF81B3001F04AFE0378002206A90CA83B
:100CB0008DF81C3010F0F8FA0CA904F1340010F093
:100CC000B5FB0CA8FFF739FC12B070BD00207047CF
:100CD000002070477047704730B5A1F1100400251F
:100CE00000F00F02CD7302390009D3B2092ACCBF3C
:100CF000373330330B748C42F2D130BD1FB5069CB4
:100D000004AB043043F8044DCDE9001313464821E9
:100D10004FF0FF3212F0C5F904B010BD2DE9D04FED
:100D20009B460368924604469B6ADDE9088998471A
:100D300002460B465046594629F026FA134302D084
:100D40000020BDE8D08F236820469B6A9847024662
:100D50000B464046494629F017FA1343F0D11AEBE7
:100D60000806236820464BEB09079B6B9847B9425E
:100D700008BFB0422CBF01200020E2E701682DE946
:100D8000F04114461D46096B0646884702460B464D
:100D90002046294629F0F8F9134302D00020BDE887
:100DA000F081DDE906233046A71845EB030817F16B
:100DB000FF323368196B48F1FF33884702460B4610
:100DC0003846414629F0E0F91343E7D1336830460D
:100DD0009B6B9847414508BFB8422CBF01200020BB
:100DE000DDE72DE9D04F9B460368924604465B6AD7
:100DF000DDE90889984702460B465046594629F0D6
:100E0000C3F9134302D00020BDE8D08F23682046E9
:100E10005B6A984702460B464046494629F0B4F9BA
:100E20001343F0D11AEB0806236820464BEB090761
:100E30009B6B9847B94208BFB0422CBF01200020ED
:100E4000E2E7C2207047000070B52A4E8CB03378BC
:100E5000BFF35B8F13F001041DD1304616F0CAFBBF
:100E6000C8B1254B6622254D3B21CDE90343122312
:100E70002846CDE901323D233C220093422318F05D
:100E800077FA1F4B30462B6016F0D6FB1D4A2846DA
:100E90001D4916F097FB194818F0E0FB17220023B4
:100EA00006A91648CDE900234FF400520023FFF7AE
:100EB00025FF164B04460DF119020DF12D001946C0
:100EC00052F8045B824243F8045BF9D11088188021
:100ED00092789A700B78B52B04D10D4B01221960D2
:100EE0000C4B1A70054818F0C7FAB4FA84F04009A0
:100EF0000CB070BD682A0224005A6202702A0224D3
:100F000058BF0808000000246D100408782C022443
:100F1000040000246C2A0224014B1868704700BFAB
:100F20000400002408B5054B1B780BB9FFF78CFFB4
:100F3000034B1B68B3F8070008BD00BF6C2A0224EE
:100F40000400002408B5054B1B780BB9FFF77CFFA4
:100F5000034B1B68B3F8090008BD00BF6C2A0224CC
:100F600004000024074B1B7810B504460BB9FFF7AB
:100F70006BFF054B06201B6853F80B2F22609B88E4
:100F8000A38010BD6C2A022404000024FFF7EABFEE
:100F900008B50C4A01210C4B18201A6001F02AFEFA
:100FA0000121172001F026FE0021182001F060FE2B
:100FB0000021172001F05CFE044B43F2D2021A60BC
:100FC00008BD00BF00400058442A022400400052DF
:100FD00010B504461FF06CFB2146FFF77DFE1FF0A5
:100FE0006DFB04F11001FFF777FE1FF06DFB04F1BC
:100FF0002001FFF771FE302010BD000008B54DF64E
:1010000059720021074824F022FDBFF34F8F064993
:10101000064BCA6802F4E0621343CB60BFF34F8F04
:1010200000BFFDE7442A022400ED00E00400FA05B9
:1010300038B5074B0546044645F8BC3B18F01CFA8A
:10104000284616F0F1FF201D12F0CEF8204638BDDC
:101050003CE4080810B50446FFF7EAFF4FF40271BC
:10106000204616F023FD204610BD0000034B10B5AE
:1010700004460360FFF7DCFF204610BD58BF080898
:1010800010B50446FFF7F2FF4FF40271204616F048
:101090000DFD204610BDD0E90030184710B5C0E95D
:1010A0000012024C0022C460826010BDB0BF08086C
:1010B00070B590F8383105461446F3B90368DB691A
:1010C000984704F4706304F00F02B3F5407F04F016
:1010D000F0030CBF07210821302B0CBF0223012392
:1010E000012A08D0901E42424241A869BDE87040E2
:1010F000006812F088B90222F7E770BD10B590F8C9
:10110000383104462BB9A369186812F0BDF90028DC
:10111000F9D010BD38B590F838510446A5B98369A7
:101120005BB1186848B10368DB689847A36904217C
:101130001D60A06916F0BAFCA5610023C4F828312F
:10114000C4F82C31C4F8303138BD13B590F83831BB
:1011500004466BBBA369186812F06CF940B315F034
:1011600061FDA36901220DF10701186803685B693D
:101170009847D4F83031B3F5807F16D0D4F83031A9
:10118000B3F5807F11D0D4F828319DF8072023448F
:1011900083F82820D4F828310133DBB2C4F8283191
:1011A000D4F830310133C4F8303115F051FDD1E7B6
:1011B00002B010BD7FB590F8383104460D46002BC3
:1011C00033D1866926B9042016F03CFCA061066084
:1011D000A369186858BB8C2016F034FC2B46B4F970
:1011E00022200646B4F9201012F0E2FBA3691E602B
:1011F000B4F92420531C06D0A0690321B4F9263089
:10120000006812F0E3FBA369186870B10A4B002272
:10121000694600940393094B0292019312F051F92D
:10122000039B13B19B686846984704B070BD29467C
:1012300012F0D6F8DCE700BFBCBF08084B11040869
:1012400010B4D0E9013401686210E4075DF8044B82
:1012500001EB020044BF8A58D358184708B590F8EC
:1012600038313BB1012001F051FC0648BDE808408F
:1012700001F05EBA82691AB11368003318BF012306
:10128000184608BDD835022470B504460D4601F055
:101290004FFA30B12368294620461B6CBDE87040E8
:1012A000184770BDA0F5A070EEE7000013B590F8E8
:1012B000383104468DF807102BB1C9B20B48FFF73F
:1012C000E3FF02B010BDA369186812F0DDF8002832
:1012D000F9D0A36901220DF10701186803681B69A1
:1012E0009847013018BF0120EBE700BFD835022432
:1012F0002DE9F04107468846164601F019FA70B10B
:101300000024A6420CD9351B08EB04013846402DB9
:1013100028BF40252A462C4400F0F0FEF1E70446A1
:101320002046BDE8F081A0F5A070E1E770B590F827
:10133000383105460E4614462BB10F48FFF7D8FF4B
:101340000446204670BDAB69186812F09DF800286D
:10135000F9D0AB6901211868D0F8883088301B6B50
:101360009847AB6922463146186803681B6998475D
:10137000013008BF0024E4E7D835022430B5044624
:10138000C3B001F04DF90546D4F85832C3F5807367
:10139000984203DDD4F85852C5F580752A4601AB52
:1013A00002A9204600F094FF019902AB00226D1AB9
:1013B0001D44D4F85832B3F5807F19D08A4217D033
:1013C000D4F85832B3F5807F10D0D4F85032A85CEE
:1013D000234483F85001D4F850320133DBB2C4F80F
:1013E0005032D4F858320133C4F858320132E0E7B1
:1013F00043B030BD38B5044600F02AFB2046FFF765
:10140000BDFFD4F85852204600F02AFB284638BDCC
:10141000A0F5A070EEE7000010B590F83831044652
:101420002BB10648FFF7E6FF0446204610BD15F035
:10143000F9FBD4F8304115F00BFCF6E7D83502245F
:1014400038B5044600F004FB2046FFF797FFD4F8B8
:1014500058324BB1D4F85432234493F850512046BB
:1014600000F0FEFA284638BD4FF0FF35F7E7A0F54B
:10147000A070E5E710B590F8383104462BB10B4861
:10148000FFF7DEFF0446204610BD15F0CBFBD4F875
:1014900030313BB1D4F82C01044494F8284015F0C5
:1014A000D7FBF0E74FF0FF34F9E700BFD83502244F
:1014B00038B5044600F0CCFA2046FFF75FFFD4F8B9
:1014C0005832A3B1D4F85432234493F85051D4F88D
:1014D00054320133DBB2C4F85432D4F85832013BF1
:1014E000C4F85832204600F0BBFA284638BD4FF009
:1014F000FF35F7E7A0F5A070DAE7000010B590F827
:10150000383104462BB11148FFF7D2FF044620467C
:1015100010BD15F087FBD4F830319BB1D4F82C31D5
:10152000234493F82800D4F82C310133DBB2C4F8FB
:101530002C31D4F83031013BC4F83031044615F079
:1015400087FBE4E74FF0FF34F9E700BFD83502240A
:1015500038B51D46036804461B6A984795B1B4F92F
:101560002230094AC3F3031103F00F0352F821108C
:10157000064A52F82330CA685B4303EB430322EA6E
:101580000303CB6038BD00BFC8BF080860FF080870
:1015900008B54FF48072002141F0EAF90022C0F84A
:1015A0000021C0F80421C0F8082108BD2DE9F84346
:1015B0000025224C4FF47A79DFF88C80202704F143
:1015C0002800C4F80080E561C4E90159C4E9057543
:1015D000FFF7DEFF01230E2084F8383101F06AFAAC
:1015E000174C06460D2001F065FA26844FF6FF766B
:1015F000608404F12800C4F80080E561A684E684D4
:10160000C4E90159C4E90575FFF7C2FF84F83851F0
:101610001A230C4C23841B2304F12800C4F80080F7
:10162000E5616384A684E684C4E90159C4E90575CB
:10163000FFF7AEFF84F83851BDE8F883082F022485
:10164000902C0224CC2D0224FCBF080800207047F7
:101650007047704710B5D0F88C452CB123682046F0
:101660005B689847A468F8E710BD38B50D46D0F818
:101670008C4534B12368204629469B689847A46866
:10168000F7E738BD00487047C0C00808054B10B5E3
:101690000446036013F0AFFC204613F0C5FC20465F
:1016A00010BD00BF40C0080810B50446FFF7EEFFAC
:1016B0004FF4B261204616F0F9F9204610BDF7B597
:1016C000002305460E46D0F88C45A4B12368314668
:1016D0000DF103022046DF6801ABB8479DF8031007
:1016E0000346042905D0019A284612F0E9FE03B00A
:1016F000F0BDA468E9E7019A9DF80310F4E770B51E
:1017000005460E4622B10021BDE8704012F0DABC59
:10171000D0F88C455CB123680022314620461B6915
:10172000984710B101212846EEE7A468F2E7214668
:10173000F9E770B50E460546D0F88C4500213CB15E
:101740002368314620465B699847A4680146F6E75E
:101750002846BDE8704012F0AFBDF8B505460E460C
:101760001746D0F88C453CB1236820463A463146AE
:101770009B699847A468F6E728460121BDE8F84030
:1017800012F0F8BD70B5002186B0044613F090F851
:1017900000234FF48975A188EF26ADF80630238920
:1017A000ADF8045002258DF810301B0AE2888DF840
:1017B000113040F201238DF80750ADF8123040F29D
:1017C00003138DF809500125ADF8143004F10A0314
:1017D0008DF8086005AE8DF80A501C468DF80C1087
:1017E00001AD090A8DF80E20120A8DF80B008DF854
:1017F0000D108DF80F202A46083303CAB24243F871
:10180000080C43F8041C1546F5D1128820461A80AE
:1018100006B070BDF8B5002406460D462746304692
:1018200041F0EEFDA04207D9335D05F8143005EB19
:10183000440301345F70F2E7400000F0FE00F8BDA1
:1018400038B50446D0F88C5535B12B6828461B6A4C
:10185000984710B9AD68F7E7284640F2023304F222
:101860004A51A4F84835FFF7D5FF94F84835184495
:1018700084F8480504F5A96038BD000040F2023341
:1018800000F20A5110B50446A0F808350548FFF7E4
:10189000C1FF94F80835184484F8080504F5A160E0
:1018A00010BD00BF28C0080840F2023310B504463E
:1018B000A0F8C83400F2CA40FFF78AFB94F8C83495
:1018C000184484F8C80404F5996010BD2DE9FF415F
:1018D00000231D4A044600F54E788DF80A3009258C
:1018E00090F888350192FA228DF8083001238DF89E
:1018F0000C208DF80930C0238DF80B3001AB03CBE1
:10190000C4F83803C8F8041088F80820D4F88C65A7
:101910008EB13368002130461B689847478805F52B
:101920004E7300F10901093FE0183A463D4440F08A
:1019300021FFB668ECE784F83A5340462D1284F84C
:101940003B5304B0BDE8F0810902FFFF73B50446C4
:101950000D46164626F09CFA4FF4807301462A463F
:1019600020460093334612F06BFF024B2046236063
:1019700002B070BD40C0080810B5D0F88C350446E0
:10198000A3B9C0F88C1594F8883508464A790B71CC
:1019900094F88835134484F888350B685B6A984757
:1019A000238918442081012010BD13469A68002A1B
:1019B000FBD19960E7E71FB5044612F03BFF0146F3
:1019C000684612F0C5F84021684612F03DF9D4F897
:1019D0008C4534B1236820466946DB699847A46882
:1019E000F7E7684612F0BBF804B010BD10B5044626
:1019F000FFF7E1FF2046BDE8104012F08BBE00006B
:101A000070B50F4CFFF78EFA0546FFF79BFA237867
:101A10000646BFF35B8FDB0710D4204615F0EAFDC6
:101A200060B1324629460748FFF790FF204615F07F
:101A300003FE054A0549034815F0C4FD014870BD81
:101A40004430022448300224000000248D1604088B
:101A500010B5FFF7D5FF0368BDE810405B6F18476E
:101A600010B5FFF7CDFF0368BDE810409B6F184726
:101A700010B5FFF7C5FF0368BDE81040DB6F1847DE
:101A800012F022BA12F0E0B912F00EBA70477047A5
:101A90007047436A93F878007047D0F82401704784
:101AA000012070470048704728C208082DE9F04F10
:101AB00097B004460F464B22002103A840F058FF80
:101AC000D4F824312679002B637B06F1010594F8C4
:101AD0000EA014BF05200020EDB294F80C900193E5
:101AE000002F40F0978040F2092301218DF8250056
:101AF00042F20540ADF80C304FF481734FF0240CE6
:101B00004FF0090EADF81030802304274B228DF8DA
:101B1000133032238DF821104FF010088DF8143057
:101B200008238DF824104FF0030B8DF815300B238C
:101B3000ADF8260005208DF8163040F202238DF80E
:101B40002A101D34ADF8183002238DF82D108DF8B1
:101B50002F1006218DF80E208DF817608DF81A30A1
:101B60008DF81DE08DF81F608DF822308DF8233040
:101B70008DF82B008DF82CC08DF831C08DF83230E7
:101B80008DF833108DF834008DF835C08DF81E7047
:101B90008DF829808DF82EB08DF830708DF83610C4
:101BA00007218DF8376044F203068DF839108DF85F
:101BB000491044F202018DF83850ADF84C1040F253
:101BC00007518DF8425040F60225ADF850109DF8AF
:101BD00004108DF8533040238DF83A008DF84A00F8
:101BE00020468DF8521003A98DF83BA0ADF83C605B
:101BF0008DF83F808DF840E08DF84170ADF844508D
:101C00008DF84B908DF8543040F0B4FD204617B05D
:101C1000BDE8F08F0020FAE738B50B4B05460446C7
:101C200045F8D03BFFF7ECFE13F0E5F9284612F03B
:101C3000A5F804F17C0012F0A1F804F1700012F094
:101C40009DF8204638BD00BFE8C1080810B504461D
:101C5000FFF7E2FF4FF49471204615F027FF20466E
:101C600010BDFFF705BF0000034B10B5044603602D
:101C700011F0F4FE204610BD08C1080810B5044656
:101C8000FFF7F2FF2821204615F010FF204610BD77
:101C9000034B10B50446036011F0E0FE204610BD72
:101CA000D8C0080810B50446FFF7F2FF34212046DB
:101CB00015F0FCFE204610BD034B10B50446036032
:101CC00011F0CCFE204610BDF0C0080810B5044647
:101CD000FFF7F2FF3821204615F0E8FE204610BD40
:101CE00038B51C4B0D46044640221968C0F80F1049
:101CF00099889B79A0F8131002214375284611F0AA
:101D000099FF402220730221284611F098FF4022BB
:101D100060730321284611F08DFFA073284611F04F
:101D20001FFF20B9AF220C490C4814F08FFE00238E
:101D300004F18502C4E9322304F1D90284F8783031
:101D400084F8843084F8D830C4F81C21C4F82031D9
:101D500038BD00BF24C10808C3C10808CEC10808A7
:101D60002DE9F34104460E461546FFF781FEF28841
:101D700023799A4237D1002D35D17778012F2ED192
:101D8000F378202B27D13289072A24D104F10F08B8
:101D900004F116054046294640F0BAFCD0B1D4F80B
:101DA0001630C4F80F30638B207CE17BA4F813302D
:101DB00001EB0021E57C607C237F01EB0041009575
:101DC000A07C2568637501EB0061237D2046627D60
:101DD0006D6BA8473D46F378212B08BF01252846A7
:101DE00002B0BDE8F0810025F9E710B50446FFF721
:101DF0003FFEFFF705FE217B12F0A2FF04F18503F1
:101E000004F17C00C4F8C8300023C4F8CC3084F856
:101E1000843011F068FF94F884302BB92368204691
:101E2000DB6BBDE81040184710BD000070B50446DC
:101E3000FFF71EFED4F820512DB140F2DD120F49FC
:101E40000F4814F003FE04F1D903C4F81C31FFF766
:101E5000D7FD617B12F0D0FE84F8D850C4F8200181
:101E600004F1D00011F03FFF94F8D8302BB923686B
:101E700020469B6BBDE87040184770BDC3C1080881
:101E800030C1080810B4D0E9013401686210E407D9
:101E90005DF8044B01EB020044BF8A58D358184741
:101EA000F0B587B004460026FFF7E2FD02ADFFF76C
:101EB000A7FDA17B032340220095059612F044FC68
:101EC0002846184FFEF7E8FDFFF79AFD164B217BD9
:101ED0004022009505970294CDE90336022312F0C3
:101EE00033FC2846FEF7D8FDFFF78AFD0F4B617BD8
:101EF0004022009505970294CDE90336022312F0A3
:101F000023FC2846FEF7C8FDFFF77AFD4023D4F8EE
:101F10001C21617B12F010FE012084F8D80007B06C
:101F2000F0BD00BF18C10808EB1D04082D1E0408F1
:101F300038B50223044615464371002383600B4BDA
:101F400040F8703B11F0C2FE04F17C0011F0BEFEBF
:101F500004F1D00011F0BAFEC4F82451FFF750FD8F
:101F60002146FFF709FD204638BD00BFE8C108083B
:101F700070B504460D46FFF77BFD84F87850002DC0
:101F80003ED194F8843033B1FFF73AFD217B12F053
:101F9000ABFC84F8845004F1850304F17C06002531
:101FA0003046C4F8C830C4F8CC5011F09CFE30461E
:101FB00011F092FE28B94FF4A2721449144814F09B
:101FC00045FD94F8D83033B1FFF71AFD217B12F0AC
:101FD0008BFC84F8D85004F1D90304F1D005C4F87F
:101FE0001C3100232846C4F8203111F07CFE28461D
:101FF00011F072FE20B94FF4A77204490548DEE7DC
:1020000004F17000BDE8704011F06DBEC3C1080856
:102010003EC108084FC1080810B50446FFF728FD67
:1020200000212046BDE81040FFF7A2BF38B50D469D
:102030000446FFF71DFD042D05D020460021BDE814
:102040003840FFF795BF38BDF8B5164604460D4633
:102050001F46FFF70DFD0423EA88337023799A4267
:1020600025D16978012922D1EA78212A08D0222AAB
:102070000BD0202A4FF000001BD13070163401E045
:102080000F34317007203C60F8BDAB88204613F058
:10209000010308BF1946FFF76BFFAB8803F001038C
:1020A000E366AB8803F00203A366022333700020CB
:1020B000EAE703233370E7E710B58AB00446FFF779
:1020C000C7FC684611F0BEFC0A4B694604F170007B
:1020D0000093099411F01FFE2046FFF7C1FC064B48
:1020E000002168461A6811F0F9FC6846FFF7BCFD4C
:1020F0000AB010BD08C108082CC1080870B58EB020
:10210000154604460E46FFF7A3FC01A811F09AFC01
:102110000E4B0C95002501A904F17C0001938DF86C
:102120003450CDE90A4611F0F6FD2046FFF798FC41
:10213000074B294601A81A6811F0D0FC9DF83440DD
:1021400001A8FFF7A5FD20460EB070BDD8C0080855
:102150002CC1080810B50446FFF78AFC94F88430B7
:102160007BB9D4F8CC3063B1FFF74AFCD4F8CC305B
:1021700004F18502217B12F07FFD10B1012384F868
:10218000843010BD2DE9F8431E460446894690462A
:102190009DF82070FFF75CFC0023336094F87830E2
:1021A000E3B194F88430CBB9D4F8CC50C5F14005F4
:1021B000454528BF4546B8F1000F05D02A46494697
:1021C000D4F8C80040F0D6FAD4F8CC302B44C4F888
:1021D000CC30356017B12046FFF7BCFF2046BDE884
:1021E000F843FFF73DBCF0B50446406A85B00126D0
:1021F00090F878502DB984F830503546284605B00F
:10220000F0BD04AB0027D4E90A1243F8047D009620
:10221000FFF7B8FF0399E36AA26A5B1A0A44E36214
:10222000A26213B984F83060E8E7606A3D46FFF7C0
:1022300091FFE3E72DE9F0431C4691B09046064636
:102240008946FFF705FC002C4FF0000502A806BFE9
:1022500001AC01270027256011F0F4FB104B02A907
:1022600006F1D00002938DF83C708DF83D50CDE919
:102270000D84CDE90B6911F04EFD3046FFF7F0FB00
:10228000084B294602A81A6811F028FC9DF83D4029
:1022900002A8FFF711FD204611B0BDE8F08300BF92
:1022A000F0C008082CC1080810B5D0F82031044649
:1022B0006BB990F8D83053B9FFF7A2FB402304F173
:1022C000D902617B12F038FC012384F8D83010BDAC
:1022D00070B504461E4600230846336094F87830F3
:1022E000EBB194F8D830D3B9D4F82051D4F81C11FC
:1022F000954228BF15462A4640F03CFA3560D4F88E
:102300001C31D4F820212B44551BC4F81C31C4F8CF
:10231000205125B92046BDE87040FFF7C5BF70BD0C
:1023200037B50446406A90F878502DB984F8355096
:102330000125284603B030BD02AB002243F8042D2E
:10234000D4E90A12FFF7C4FF0199A26A0A44A26203
:10235000226B13680B4413600199E36A5B1A94F8CB
:102360003410E36209B9126802B91BB9012384F879
:102370003530DEE7606A0025FFF796FFD9E76FF09A
:102380001500704700290CBF6FF01800002070473F
:10239000012070476FF0150070476FF0150070470F
:1023A0001120704770477047704703689B6C18474F
:1023B000A0F5A070F9E77047704770477047036851
:1023C000184710B50446012000F0A0FB94F87800EF
:1023D00010BDA0F5A070F4E738B54FF0FF3201232F
:1023E000FF210B4815F0A1FD0A4D00F07DFB0446CE
:1023F00095F878301BB1012000F088FBF8E700F079
:1024000073FB001BC728F6D9BDE83840FEF7F6BDC0
:1024100090380224D835022407B502AB012243F8D4
:10242000041D1946FFF76AFE18B1019803B05DF864
:1024300004FB4FF0FF30F9E7A0F59470FFF7ECBF15
:1024400007B5002302A9012201F8013DFFF7F2FEC2
:1024500020B19DF8070003B05DF804FB4FF0FF309A
:10246000F9E7A0F59470FFF7EBBF2DE9F8430446B8
:10247000884617461E46089DFFF7FAFAD4F8709270
:10248000B9F1000F04D02B46324639464046C847C2
:10249000C4F86082C4F86472C4F86862C4F86C520C
:1024A000BDE8F88370B506460025FFF7E1FA06F5AA
:1024B0001D74D6F8B432AB4208D92046103454F813
:1024C000043C1BB11B6801359847F2E770BD000062
:1024D000B0F5966F03D10121014815F005BD704795
:1024E0009038022410B4D0E9013401686210E40786
:1024F0005DF8044B01EB020044BF8A58D3581847DB
:10250000114B03F1780270B503600446C0F828212E
:1025100000F51D7603F1D80200F52D75E833C0F8FB
:102520002C21C0F84031AE4204D0103D2846FEF7C1
:10253000B3FAF8E704F5947013F0FAFE2046FFF7BB
:102540006BFB204670BD00BF68C20808A0F5947000
:10255000FFF7D6BFA0F59670FFF7D2BF10B50446BF
:10256000FFF7CEFF4FF42E71204615F09FFA20465C
:1025700010BDA0F59670FFF7F1BFA0F59470FFF7BE
:10258000EDBF0000F7B5044615461F460E4625F080
:102590007FFCBDF824302A46014601932046BDF851
:1025A0002030002500933B46FFF7C2FC002104F5D4
:1025B000947013F093FE4FF47A73C4F84451294693
:1025C000C4F8483104F5A870144B03F17802236075
:1025D000C4F8282103F1D802E833C4F82C214FF4C1
:1025E0008072C4F8403140F0C3F9C4F85052C4F8C6
:1025F0008052C4F85452C4F89052C4F85852C4F8E7
:10260000A052C4F8B052C4F8B452C4F8705216B113
:102610002046FFF751FD204603B0F0BD68C2080810
:1026200038B50546FFF714FA95F8D8304BB9D5F808
:102630002041402C28BF40242846FFF711FA2046AD
:1026400038BD0024F8E7000070B586B00446FFF7F7
:10265000FFF92E4B2046C4F87032FFF701FA2C4BDD
:102660002046029405932B4B039300230493FFF71A
:10267000EFF9D4F8B452032D13D804EB05166B1CF4
:1026800004EB051506F51D76C4F8B4323046FEF7A6
:1026900003FA059BC5F880321BB15B6802A930467E
:1026A000984720460026FFF7DBF902A8FEF7F4F969
:1026B000BC2015F0C7F9184B054631460360403081
:1026C00040F8306C15F0D2FC05F1540015F06EFCAA
:1026D000124B4FF48072284600931821334615F0B0
:1026E000A7FD0F4B02A9C4F85C52059328460D4B79
:1026F0000496CDE9023615F0A7FD02A8FEF7CCF945
:102700002046FEF73BFE06B070BD00BFD124040892
:1027100040C208087D130408A4E3080858C208084A
:102720004CC20808D9230408A0F5A070FFF78CBF9D
:1027300090F878007047000037B50F4C0F4D2046D9
:1027400015F0C2FB2A460E49204614F03BFF42F228
:10275000120301220B4CCDE9003200224FF4F85352
:1027600020461146FFF70EFF2A460749204603B0D0
:10277000BDE8304014F026BF903802240000002449
:10278000F57E0508D83502240125040808B53EF079
:1027900065F92DE9F04F027D85B005460E46012A08
:1027A00040F08E8000214FF0FF3B04460B465F4611
:1027B00094F804C048B2BCF1000F73D194F805C07E
:1027C000BCF1000F6ED1B7F1FF3F17BF01330123FA
:1027D00038465BB2934201DD1A468346013102342A
:1027E00008295DD1002402EB0B03A1460293CB45DF
:1027F00002DC029B4B4558DC95F8058095F804A057
:102800004FEA281708F00F080AF00F035FEA2A1AA8
:10281000FAB201926FD05FFA8AF1BAF1090F30462D
:102820000393D4BF3031573100F0D1F8039B0444F7
:10283000092B3046039394BF03F1300103F1570194
:1028400000F0C5F80444BAF1000F02D1039B03B9AC
:102850004FB1092F019F3046D4BF30375737F9B2F7
:1028600000F0B5F80444B8F1090F304694BF08F100
:10287000300108F1570100F0AAF8B9F1070F04443C
:1028800004D03A21304600F0A2F8044409F10109CD
:102890000235B9F1080FAAD1204605B0BDE8F08F86
:1028A000074685E74FF0FF3098E7CB45EED1BBF107
:1028B000000FE6D13A21304600F089F80444E0E701
:1028C00000F1100700F11309002417F8011B0A2278
:1028D000304600F0A9F880462E21304600F077F807
:1028E000B94540440444F0D10A22E97C304600F066
:1028F0009BF80444D0E7002B9AD1A9E7054B10229E
:1029000010B50446036001750021043040F030F832
:10291000204610BD84C3080870B5074D8374056058
:1029200000259DF81030057545608560C56001740F
:102930004274C37470BD00BF84C30808037D13B91B
:102940001031084470470431FBE7000007B501214E
:102950000648FFF7D3FF002305481A46194600939F
:10296000FFF7DAFF03B05DF804FB00BFA4380224D0
:10297000BC3802242DE9F04106460D4601EB020861
:102980000C464445A4EB050707D03368304614F8DD
:10299000011B1B6898470028F3D13846BDE8F08139
:1029A00070B5044608460D4640F02AFD23680246ED
:1029B000294620465B68BDE87040184709B1FFF71B
:1029C000EFBF0846704708B5FFF7F8FF08BD03687A
:1029D0001B68184770B58AB00D460023012A98BFBE
:1029E0000A220AA901F8043DB5FBF2F402FB1456D1
:1029F0002546F3B2092E94BF30333733DBB201F8EA
:102A0000013D002CF0D1FFF7D9FF0AB070BD10B422
:102A10002AB90368C9B25DF8044B1B681847D2B2E3
:102A20005DF8044BFFF7D6BFFFF7F1BF704713B552
:102A3000002000900DF020FD044610B1009802B077
:102A400010BD01AB042269460DF0F4FC20460DF0E8
:102A500015FDF3E710B500F05DF80A4CFEF798FAA3
:102A6000FEF7CEFFFEF7C2FF4FF4E1310648FFF755
:102A7000EBFDFDF707FDFDF75FFD002CFBD0AFF38D
:102A80000080F8E700000000D835022470B5054644
:102A90000024074EFEF7D5F9E3B2984206D918464E
:102AA0001B010134F35EAB42F4D170BDFF20FCE7A3
:102AB0004800002410B50446FEF7C3F984423BBF2A
:102AC0002401024B4FF0FF30185F10BD4800002476
:102AD00010B5044610F01BFE204610BD10B504468C
:102AE00010F015FE204610BD07B50749684610F0E6
:102AF0004BFE4FF47A720023DDE9000127F0F4FA6F
:102B000003B05DF804FB00BFD838022415F0FABA10
:102B100015F0B6B908B5044810F003FE0348BDE847
:102B2000084010F0FEBD00BFF0380224D83802245F
:102B300038B50A4C0A4D204610F063FE2046094C79
:102B40002A46094914F03EFD204610F065FE2A464B
:102B500020460649BDE8384014F034BDF038022460
:102B600000000024D8380224DD2A0408D12A0408F1
:102B700070B50446FEF765F9844202D34FF0FF308A
:102B800070BDFEF75EF98442F8D20E2C124B13D8BA
:102B900003EB0413B3F9F060721CEFD00F4B03EB9F
:102BA000C404656875B1284610F012F90C4B1B6817
:102BB000C3F110031841E3E722019E5E731CDDD0D0
:102BC0000F3CEBE7702014F03DFF0546054A314607
:102BD00010F024F96560E6E74800002408000024AE
:102BE000680C00240000C07F014B1860704700BFD4
:102BF000680C00242DE9F04107011C4D04460E46E7
:102C0000EA19D06810B11C2114F050FF2046FFF7DC
:102C100051FF80461C2014F015FF04461C220021A1
:102C20003FF0A6FE4146204612F0F4FDEB19012EBE
:102C3000DC6010D006D3022E12D0204610F018F916
:102C4000022103E0204610F013F900212046BDE8E0
:102C5000F04110F019B92046BDE8F04110F0FCB881
:102C6000204610F005F90121F0E700BF48000024DC
:102C7000F7B506460F46FEF7E4F8864226D2164D13
:102C800005EB0615EC689CB93046FFF713FF0646C6
:102C90001C2014F0D7FE04461C2200213FF068FEE1
:102CA0000097002301223146204612F0BDFDEC6062
:102CB0000A4B0B491A46D3F894008842FBD123688B
:102CC00037B1A1680B604FF44073536103B0F0BD9E
:102CD000E1681B04F6E700BF4800002400640258C6
:102CE0000003008073B50646FEF7ABF8864221D29A
:102CF000114D05EB0615EC689CB93046FFF7DAFE7E
:102D000006461C2014F09EFE1C22002104463FF0C3
:102D10002FFE00233146204600931A4612F084FD10
:102D2000EC6063681A6823681A4214BF012000200F
:102D300002B070BD0020FBE7480000241EF0040F25
:102D40000CBFEFF30880EFF30980816911F8021CD2
:102D5000002932D101B590E80F10E047BDE80050DE
:102D60008CE80300244B93E80600914208BF7047AB
:102D70001A6041B91EF0100F10D1204B186820F0D6
:102D8000010018600AE02CE9F00F1EF0100F08BFD8
:102D90002CED108A81F822E0C1F838C0906B92F8CF
:102DA000221061F0FF0E1EF0100F08BFB0EC108A69
:102DB000B0E8F00F80F309887047114A1368994210
:102DC000FAD801B552F821C00FC8E047BDE800505D
:102DD000CCF80000704701B501F0D4FBBDE801401C
:102DE000EFF3098CBEE701B501F090FBBDE80140AF
:102DF000EFF3098CB6E70000800C002434EF00E00C
:102E00003CC40808014608B530B96FF0030000F073
:102E100020FA6FF0030008BD132001F0B5FF30B9B0
:102E20004FF0FF3000F015FA4FF0FF30F3E70020CD
:102E3000F1E7000008B5EFF305834BB9EFF310831A
:102E400033B9EFF311831BB9DFF814C000DF08BDFD
:102E50006FF0050000F0FDF96FF00500F7E700BF27
:102E6000052E0408EFF310832BB9EFF3118000381F
:102E700018BF012070470120704710B520B10378BA
:102E8000F32B01D1002906DA6FF0030102F084FA76
:102E90006FF0030010BD00F10C0353E8000F20EAAF
:102EA000010243E8002404B1F7E7F3E7034610B555
:102EB00028B30468806860B110F0030202D1DB68B7
:102EC0000F2B25D86FF00801002002F065FA0020D2
:102ED00014E0DB68002BF5D1104BD3F8900080B1E3
:102EE00000F08AFCB0B10123F32283700023446018
:102EF00002700B4AC0E90233084B5A6610BD044603
:102F0000EAE701221021D3F8800000F000FCE9E795
:102F10001346E9E76FF00401D7E700BF6C0C00240B
:102F2000F52F040810B5044610B10378F32B07D031
:102F300020466FF0030102F02FFA6FF0030010BD7E
:102F4000836863B1204601F079FC00226FF0020132
:102F500001F033FEA0680028F4D101F0DDFC00236D
:102F60002370A378DB0701D40020E8E7064B214655
:102F7000D3F8900010B100F05CFCF5E7D3F88000C6
:102F800000F0F9FBF0E700BF6C0C0024930710B5CC
:102F900002F0010422D400F10C0384B153E8000FC5
:102FA00000EA01028A4203D0BFF32F8F002005E020
:102FB00020EA010243E8002404B1EFE710BD53E822
:102FC000000F084203D1BFF32F8F002005E020EA55
:102FD000010243E8002404B1F1E7EFE7C06801EA29
:102FE00000031CB1994218BF0020E7E7002B08BF7F
:102FF0000020E3E7F8B50546846804B9F8BD94F805
:1030000023202846616AA768FFF7C0FF064638B14B
:10301000204601F01CFC00223146204601F0CDFD87
:103020003C46EAE7F8B50D4617461E46044620B171
:103030000378F32B01D1002907DA20466FF0030152
:1030400002F0AAF96FF00300F8BDFFF79FFF002818
:10305000FAD186B13146432001F096FE40B1074BCC
:1030600020465E69314601F0D7FB756286F8237011
:103070006FF00100E8E76FF00200E5E76C0C002458
:103080002DE9F041064620B10378F32B01D1002948
:1030900009DA6FF003056FF00301304602F07CF9A6
:1030A0002846BDE8F08100F10C0353E8002F42EA06
:1030B000010543E8005000B1F7E7B4681CB92046A9
:1030C00001F02AFCECE794F823203046616AD4F83A
:1030D0000880FFF75BFF074678B194F823309B0721
:1030E00056BF656A054620EA0505204601F0AFFB9C
:1030F00000223946204601F060FD4446DEE700002C
:10310000024608B5EFF3058333B100206FF00501E7
:1031100002F042F9002008BDFFF7A4FE0028F4D118
:103120001046DFF808C000DFF5E700BFAD2E040849
:1031300038B502460D46EFF305834BB192B96FF0F7
:1031400003046FF00301104602F026F9204638BD53
:10315000FFF788FE0028F1D11046DFF830C000DF0D
:103160000446F3E71378F32BE9D1002DE7DB02F1F6
:103170000C0353E8001F41EA050443E8004000B196
:10318000F7E7104601F046FAE0E700BF8130040897
:1031900010B502460C46EFF305832BB121461046CD
:1031A000BDE81040FFF769BEFFF75CFE0028F5D1CF
:1031B0001046DFF808C000DF10BD00BF7B2E0408FA
:1031C000F8B504460E4617461D46EFF3058343B196
:1031D0008CB920466FF0030102F0DEF86FF00300B7
:1031E000F8BDFFF73FFE0028F2D120462B46DFF85E
:1031F00028C000DFF4E72378F32BEAD1002DE8D1D3
:10320000002EE6DB3A4631462046FFF7BFFE002897
:1032100008BF6FF00200E3E725300408024608B556
:10322000EFF305833BB110466FF0050102F0B4F8EF
:103230006FF0050008BDFFF715FE0028F3D110461A
:10324000DFF804C000DFF5E7252F0408704770475A
:1032500070477047EFF310832BB9EFF311800038FC
:1032600018BF01207047012070470000064BDA6A42
:103270003AB1D0695B6C1BB11B69984228BF1846F4
:1032800070474FF0FF30F5E76C0C0024014BD86815
:10329000704700BF6C0C002408B5094B1A7A022A4B
:1032A00008D0032A0AD04FF0FF3002F069F84FF03F
:1032B000FF3002E0032200201A7208BD0120FCE763
:1032C0006C0C002408B50A4B1A7A023A012A02D87B
:1032D00040B1012809D04FF0FF3002F051F84FF013
:1032E000FF3001E002221A7208BD0322FBE700BF93
:1032F0006C0C002470B5464C237A012B00F08580BD
:1033000033B14FF0FF3002F03BF84FF0FF3070BDAB
:10331000404DEB68E3652B8AD5E90B61A4F8543086
:10332000AB683046236400F0DBF908B1C4F8806074
:10333000D5E90561304600F0D3F908B9D4F88060CA
:103340006667D5E90761304600F0CAF908B9D4F8D4
:103350008060A667D5E90961304600F0C1F908B977
:10336000D4F88060E6676E6B3EB131683046D6E9CE
:10337000022300F020FAC4F88460AE6B3EB13168DD
:103380003046D6E9022300F016FAC4F88860EE6BE6
:103390003EB131683046D6E9022300F00CFAC4F899
:1033A0008C602E6C3EB131683046D6E9022300F0C5
:1033B00002FAC4F890606E6C3EB131683046D6E9CE
:1033C000022300F0F8F9C4F89460AE6C3EB13168A5
:1033D0003046D6E9022300F0EEF9C4F89860EE6CAE
:1033E0003EB131683046D6E9022300F0E4F9C4F872
:1033F0009C602D6D3DB129682846D5E9022300F077
:10340000DAF9C4F8A0500123237200207FE700BF3F
:103410006C0C0024CCC3080870B5274C237A012B10
:1034200007D06FF006004FF0FF3501F0A9FF2846E6
:1034300070BD01F01BFD10B94FF0FF30F3E71F4ADC
:10344000FF2382F8223092F8223063F0FF03DB433F
:1034500004D1D268C2F30222531C08E0B3FA83F30A
:10346000D268C3F12003C2F302229342F4D9FE22B0
:10347000134E144902FA03F3104A7068DBB2D37793
:1034800001F0DAFF05460028D6D102F02DF82061C0
:1034900002F016F80C4801F0D1F901F035FA336862
:1034A000DB074CBF0223032383F31488BFF36F8F22
:1034B00002232372BBE700BF6C0C002400ED00E088
:1034C000CCC30808E72D0408880C002410B50F4C65
:1034D000237A022B13D101F0FBFF01236372BFF3A8
:1034E0004F8F0B4A5168C90003D54FF000615160FE
:1034F000A37204232372BDE81040FFF7B7BE6FF03C
:10350000070001F03DFF002010BD00BF6C0C00243F
:1035100000ED00E038B51D4C0546237A042B34D16C
:10352000FFF7A4FEE26A85422CBF00F1FF332B4671
:1035300012B1D069C01AD061626C12B11069C01AA0
:103540001061E26813441544E360E3689D4213D1BF
:1035500002230020237201F0DFF900236372BFF31E
:103560004F8FA27A22B1A3724FF08052084B5A605B
:10357000BDE8384001F0A4BF0133E36001F08AF9EF
:10358000236D002BE1D09847DFE738BD6C0C002499
:1035900000ED00E0704738B504460D46FFF756FED3
:1035A00029462046BDE8384001F0ACBE08B5FFF71B
:1035B000F1FFEFF3058333B16FF0050001F0E0FE9A
:1035C0006FF0050008BDFFF745FE0028F4D1DFF8D5
:1035D00008C000DFF6E700BFF532040808B5EFF3D6
:1035E000058333B16FF0050001F0CAFE6FF00500EE
:1035F00008BDFFF72FFE0028F4D1DFF808C000DF78
:10360000F6E700BF1934040808B5EFF3058333B1BA
:103610006FF0050001F0B4FE6FF0050008BDFFF784
:1036200019FE0028F4D1DFF808C000DFF6E700BF7C
:1036300099320408024608B5EFF3058333B16FF001
:10364000050001F09DFE6FF0050008BDFFF702FECA
:103650000028F4D11046DFF808C000DFF5E700BF0E
:10366000C532040808B5EFF305832BB16FF00500F0
:1036700001F086FE002008BDFFF7ECFD0028F5D123
:10368000DFF804C000DFF6E7CD340408024608B5D1
:10369000EFF305832BB16FF00500BDE8084001F0A2
:1036A0006FBEFFF7D7FD0028F5D11046DFF804C044
:1036B00000DF08BD1535040808B5EFF3058313B125
:1036C000054BD86808BDFFF7C5FD0028F8D1DFF825
:1036D0000CC000DFF6E700BF6C0C00248D3204083C
:1036E000034610B588B1084310F007000DD1172923
:1036F0000AD9196008391022CC185A609C605850B9
:1037000099684A60D860012010BD0020FCE703469C
:1037100070B570B369B3032A2BD80F3100F10804D8
:1037200021F00706214624684D68601A25F003053C
:10373000401B864203D920680028F3D170BD5D6824
:103740003243186835445D60034453F8040C083B69
:10375000854288BF5D604B681BB901F108004A6073
:10376000ECE723F00303C818CC504260086008302F
:10377000E4E70020E2E7034610B580B1C9B1A1F14A
:10378000080400F108020021A24209D1506820F08B
:1037900003045868001B586041B95160012010BDF6
:1037A000106811460028FAD00246EDE713680B6056
:1037B000F4E70846F3E730B5C0B189B1C2B1CBB187
:1037C00000240160C3604361C0E9014202FB01F4CF
:1037D0001D1905611846013904D1A41A1951012196
:1037E000084630BD851805602846F4E70146F7E72E
:1037F0001146F5E71946F3E7034610B508B900206E
:1038000010BD00F1140252E8000F10B9BFF32F8F62
:1038100004E0016842E8001404B1F4E70028EED0A7
:10382000043353E8002F511C43E8001404B1F8E7B7
:10383000E6E730B5F0B1C3688B421BD803698B4211
:1038400018D900F114031A680A60BFF35F8F53E8B8
:10385000002F0C689442F6D143E8001505B1F2E759
:10386000043050E8003F5A1E40E8002101B1F8E75B
:10387000002030BD6FF00300FBE7EFF310832BB99E
:10388000EFF31180003818BF012070470120704706
:10389000D1E9013223B19A608A681AB15360704746
:1038A000C262F9E7036370472DE9F84F894607467E
:1038B00038B131B1B0FA80F1B9FA89F30B441F2B5A
:1038C00008DC6FF003010024002001F07BFD20469E
:1038D000BDE8F88F09F1030828F0030808F10C0887
:1038E00008FB00FB002A5AD09468D2F800A0D2E965
:1038F00004653CB1A10702D1D368332B0DD86FF01A
:103900000801E0E7D368002BF9D126B3B20701D153
:10391000AB4522D96FF00901D5E7B6B9002DF9D131
:103920002A4B00225946D86FFFF7F1FE06460028C1
:1039300044D13DB1254B2146D3F8A000002838D012
:10394000FFF777FF6FF00401BDE7B307E2D1AB45A6
:10395000E0D800250DE0002DDCD11C4BD3F8A000F1
:1039600000B3FFF749FF04460028EBD00125002EE5
:10397000D6D0FA234246394604F10C0023700023C6
:10398000A570A360C4F804A0C4E90993C4E90B338B
:103990003346FFF710FF0D4B0D4A1A6797E7924623
:1039A0001646DAE701223421D3F88000FFF7AFFE94
:1039B000D9E7D3F88000FFF7DEFEC3E75A460021BF
:1039C00045F002053EF0D4FFD3E700BF6C0C0024A5
:1039D000613A040800F1280310B553E8002F12B92A
:1039E000BFF32F8F04E0511E43E8001404B1F4E745
:1039F0000AB9002010BDC06A01220028F9D0811C3C
:103A0000D1E84F3FC1E8442F04B1F9E7DBB2002B06
:103A1000F0D08068F1E7036B30B5E3B1CD780024D6
:103A2000DA78AA420FD31A46C1E901248AB191601B
:103A3000A4B16160283050E8003F5A1C40E80021E2
:103A400001B1F8E730BD5A681C46002AECD0134695
:103A5000E6E7C162ECE7C1E90133C1620163E9E76E
:103A6000F8B5877804468FB3C56800270146284615
:103A7000FFF70EFF277005F10C042046FFF7D9FE73
:103A8000AB68002B48D02046FFF7B6FE044600285E
:103A900042D0284600F0D2FE06463A46394601F0AA
:103AA0008CF8304600F026FF6A6A0646816804F109
:103AB0000C003EF05FFEF923A7702370F368E370FB
:103AC00021462846BDE8F840FFF7A5BF8568AB68EA
:103AD000002BF5D05B78832BF2D1284600F0AEFEA8
:103AE00006463A46394601F068F8304600F002FFD3
:103AF00006466A6A04F10C0180683EF03BFEF368FA
:103B00000BB1E2781A700023214605F10C002370F6
:103B1000BDE8F840FFF78DBEF8BD00002DE9F0418B
:103B20000E4617469846044618B10378FA2B00D182
:103B300041B920466FF0030101F044FC6FF003002F
:103B4000BDE8F0818368BBB15B78832B14D100F0B2
:103B500075FE05460122002101F02FF8284600F0ED
:103B6000C9FE0546626A314680683EF003FEEB6896
:103B700003B11F700020E3E704F10C00FFF73CFEE7
:103B8000054670B13146626A0C303EF0F3FDF92310
:103B9000294620462B700023EF70AB70FFF73BFFE8
:103BA000E8E7B8F1000F11D04146932001F0ECF89E
:103BB00010B96FF00100C3E7064B2046596900F0C9
:103BC0002BFEEFF30983C3E90267F2E76FF002000F
:103BD000B6E700BF6C0C00242DE9F0410F461646F5
:103BE0009846044618B10378FA2B00D141B9204613
:103BF0006FF0030101F0E6FB6FF00300BDE8F08118
:103C0000FFF7E8FE054600283AD001462046FFF7B8
:103C10003FFE626A05F10C0138463EF0ABFD0EB185
:103C2000EB783370002704F10C06294630462F70DC
:103C3000FFF7FFFDA3680BB90020DFE73046FFF771
:103C4000DBFD05460028F7D0204600F0F7FD0646CC
:103C50003946012200F0B1FF304600F04BFE626AA7
:103C60000646816805F10C003EF084FDF923AF7033
:103C700029462B702046F368EB70FFF7CCFEDBE79C
:103C8000B8F1000F11D04146832001F07DF810B942
:103C90006FF00100B2E7064B2046596900F0BCFD09
:103CA000EFF30983C3E90276F2E76FF00200A5E7BC
:103CB0006C0C002408B5064B08219A6ED86EFFF7ED
:103CC000F3FD044BD864B0FA80F04009404208BDCF
:103CD000CCC308086C0C00242DE9F04106460F46C1
:103CE00090461C46EFF305834BB196B930466FF012
:103CF000030101F067FB6FF00300BDE8F081FFF7FF
:103D0000BCFD0028F1D130462346DFF848C000DF73
:103D1000F3E73378FA2BE9D1002FE7D0002CE5D177
:103D200006F10C00FFF768FD054680B1726A39465E
:103D30000C303EF01FFDF9232846AC702B7085F83F
:103D40000380C5E9017600F065FC2046D5E76FF0F9
:103D50000200D2E71D3B0408F8B504460F4616469C
:103D60001D46EFF3058343B18CB920466FF0030184
:103D700001F028FB6FF00300F8BDFFF77EFD00287F
:103D8000F2D120462B46DFF844C000DFF4E7237869
:103D9000FA2BEAD1002FE8D0002DE6D12046FFF71C
:103DA00019FE054670B100F10C01626A38463EF01A
:103DB000E1FC0EB1EB7833702846EC6000F02AFC91
:103DC0000020D9E76FF00200D6E700BFD93B040816
:103DD000EFF310832BB9EFF31180003818BF0120E7
:103DE000704701207047000038B5044640B3D0E961
:103DF0000025806860B110F0030302D1E1681B293F
:103E000027D86FF00801002001F0CCFA002016E05E
:103E1000E368002BF5D11446104BD3F8940088B119
:103E2000FFF7EAFCB8B10123F52283700023C570C7
:103E3000027044600376C0E90233C0E9043338BD40
:103E40000546E9E701221C21D3F88000FFF75FFC5B
:103E5000E8E71446E8E76FF00401D5E76C0C0024AE
:103E6000294B70B55D6904460E4635B96FF0070100
:103E700001F098FA4FF0FF3070BD10B10378F52BC8
:103E800007D020466FF0030101F08CFA6FF00300B9
:103E9000F2E7037E53B9C0E90353EB6A436103B110
:103EA00018610123EC6200202376E5E7C278D10790
:103EB0000ED5C168A9420BD1FF2B06D16FF00F01BF
:103EC00001F070FA6FF00200D6E70133DBB2EAE7E7
:103ED000002EF7D093070AD5E06895F9203090F9C5
:103EE00020209A4203DA80F8203000F0B9FC3146F5
:103EF000532000F049FF10B96FF00100BCE72946DC
:103F0000204600F089FCF7E76C0C00242F4B5A691F
:103F100070B5044632B96FF0070101F043FA4FF073
:103F2000FF3070BD10B10378F52B07D020466FF03D
:103F3000030101F037FA6FF00300F2E7037E33B9B3
:103F40006FF00E0101F02EFA6FF00200E9E7C16890
:103F5000914202D06FF00D01F4E7013BDBB2037632
:103F60000BB10020DDE743690BB1016919612169DB
:103F7000E9B14B6192F92130D56AD5B982F8203088
:103F8000A36883B1204600F059FC06462A4629461C
:103F900000F013FEF36AC4E90365636103B11C61B9
:103FA0000123F4622376002000F0B6FCD9E7D36247
:103FB000E0E7E978890706D5A96821B191F92010D1
:103FC0008B42B8BF0B466D69D7E700BF6C0C00246D
:103FD00010B5044610B10378F52B07D020466FF0DA
:103FE000030101F0DFF96FF0030010BD037EBBB1E8
:103FF0006369C0680BB122691A612269BAB1536161
:1040000090F92120C36AA3B990F92030934203D0DC
:1040100080F8202000F024FCA068B0B900F07CFCFF
:1040200000232370A378DB0718D40020DDE7C362E8
:10403000E6E7D978890706D5996821B191F920106A
:104040008A42B8BF0A465B69DDE7204600F0F6FB0E
:1040500000226FF0020100F0B0FDDDE7064B2146C3
:10406000D3F8940010B1FFF7E4FBDEE7D3F880004B
:10407000FFF781FBD9E700BF6C0C00242DE9F0416C
:104080000446002601270CB9BDE8F081E378D4F896
:1040900014801B0712D5A36826767BB1204600F05A
:1040A000CDFB00220546114600F087FDEB6AC4E90E
:1040B0000356636103B11C61EC6227764446E2E774
:1040C00010B4C3789B071DD5C06890F92120C36A3E
:1040D000DC78A40709D59C688C4208BF8C6824B1A1
:1040E00094F92040A242B8BF22465B69002BEFD171
:1040F00090F92030934205D080F820205DF8044BE1
:1041000000F0AEBB5DF8044B70470000024608B5F6
:10411000EFF3058333B100206FF0050101F042F9A0
:10412000002008BDFFF754FE0028F4D11046DFF848
:1041300008C000DFF5E700BFE93D0408024608B506
:10414000EFF305833BB110466FF0050101F02AF94A
:104150006FF0050008BDFFF73BFE0028F3D11046C5
:10416000DFF804C000DFF5E7613E0408024608B549
:10417000EFF305833BB110466FF0050101F012F932
:104180006FF0050008BDFFF723FE0028F3D11046AD
:10419000DFF804C000DFF5E70D3F0408024608B56C
:1041A000EFF305833BB110466FF0050101F0FAF81B
:1041B0006FF0050008BDFFF70BFE0028F3D1104695
:1041C000DFF804C000DFF5E7D13F0408EFF3108308
:1041D0002BB9EFF31180003818BF01207047012080
:1041E00070470C30D0E85F3F13B9BFF32F8F04E066
:1041F0005A1EC0E8512F01B1F4E798B2003818BF39
:104200000120704730B500F10C02C189D2E85F3F50
:10421000994202D8BFF32F8F04E05C1CC2E8554FCF
:1042200005B1F3E7C0899BB2984294BF00200120FA
:1042300030BD000070B54FF6FE730D46411E0446BA
:10424000994201D8A84206D26FF00301002001F084
:10425000AFF8002070BD12B39068166840B110F03E
:10426000030302D1D2680F2A0DD86FF00801EDE7E1
:10427000D368002BF9D1104BD3F8980088B1FFF721
:10428000BBFAA8B10123F6228370002346600270B6
:1042900083600A4A084B8581C4819A66DAE716462C
:1042A000E9E701221021D3F88000FFF730FAE8E7B0
:1042B0006FF00401CBE700BF6C0C002471430408CD
:1042C00010B5044610B10378F62B07D020466FF0E6
:1042D000030101F06DF86FF0030010BD83683BB17E
:1042E00000F0ACFA0122002100F067FC0020F4E7A6
:1042F000FFF788FF0028F9D120466FF0100101F088
:1043000057F86FF00200E8E710B5044610B10378E3
:10431000F62B07D020466FF0030101F049F86FF04B
:10432000030010BD836863B1204600F087FA0022C5
:104330006FF0020100F041FCA0680028F4D100F009
:10434000EBFA00232370A378DB0701D40020E8E711
:10435000064B2146D3F8980010B1FFF76AFAF5E74B
:10436000D3F88000FFF707FAF0E700BF6C0C0024D9
:10437000836810B504465BB1FFF733FF40B12046B8
:1043800000F05CFA0022BDE81040114600F015BCB8
:1043900010BD000038B50D46044610B10378F62B69
:1043A00007D020466FF0030101F002F86FF0030020
:1043B00038BDFFF716FF68B975B12946632000F0D4
:1043C000E3FC20B1064B2046596900F025FA6FF056
:1043D0000100EDE70020EBE76FF00200E8E700BF27
:1043E0006C0C002410B50446EFF3058333B10020B4
:1043F0006FF0050100F0DCFF002010BDFFF7E6FEC6
:104400000028F4D12046DFF808C000DFF5E700BF40
:104410003542040810B502460C46EFF3058343B15C
:1044200082B910466FF0030100F0C2FF6FF0030085
:1044300010BDFFF7CBFE0028F2D11046DFF820C0F8
:1044400000DFF5E71378F62BEBD1002CE9D110460D
:10445000FFF7C7FE00280CBF6FF002000020E7E75F
:104460009543040810B50446EFF3058343B184B9BE
:1044700020466FF0030100F09BFF6FF0030010BDBA
:10448000FFF7A4FE0028F2D12046DFF830C000DF9D
:10449000F5E72378F62BEBD12046FFF7B3FE20B1EA
:1044A000204600F0B7F80020E9E720466FF0100141
:1044B00000F07EFF6FF00200E1E700BFC142040898
:1044C000024608B5EFF305833BB110466FF00501D6
:1044D00000F06EFF6FF0050008BDFFF777FE0028C3
:1044E000F3D11046DFF804C000DFF5E70943040804
:1044F00010B5D0E85F3F5A1C914200D80022C0E8B6
:10450000542F04B1F5E798B210BD000038B51C4C2B
:1045100000F0E4FFE3680133E36000F0BBF9002042
:1045200000F0FAF9236D03B19847226C32B3A36906
:10453000E06BD969984202D0E36301B9DA61DA69C4
:10454000C2B9237A022B19D1656ABDB1E36B95F923
:10455000202093F920309A4210D1284600F077F9B4
:10456000E06B00F08FF9284600F0CEF9236CE5638C
:10457000EB6103E0013ADA61002AE2D038BD00BF06
:104580006C0C002470B5224C04F1560504F15A0657
:10459000B4F85410D5E85F3F13B9BFF32F8F04E090
:1045A0005A1EC5E8502F00B1F4E79BB25BB330460A
:1045B000FFF79EFFE36D53F8200020B30378F13B33
:1045C000082BE5D801A252F823F000BFF1450408FA
:1045D00091450408F74504089145040891450408ED
:1045E000FB450408FF4504089145040803460408F8
:1045F000236E9847CCE7636EFBE7A36EF9E7E36EA3
:10460000F7E7236FF5E70020BDE8704000F084B9BC
:104610006C0C002470B5164C0546B4F8541004F127
:104620005602D2E85F3F994202D8BFF32F8F04E0D1
:10463000581CC2E8560F06B1F3E79BB2994205D861
:1046400029460220BDE87040FEF7A5BF04F15800DE
:10465000FFF74EFFE36D43F82050637A23B9054B13
:104660004FF080525A6070BD0123A372FBE700BF78
:104670006C0C002400ED00E0EFF310832BB9EFF396
:104680001180003818BF012070470120704703785F
:10469000F12B00D07047C068F9E7000010B5C4697D
:1046A000621CD0E904310CD103B1596142691AB1DD
:1046B00013610023436101E0074A13630023C361D0
:1046C00010BD1BB1DA6959612244DA614269002ADE
:1046D000EED1014AD362F1E76C0C002401230A4AAF
:1046E00090F9201043701C32936810B51BB193F9F8
:1046F00020408C4205DCC0E90232906003B1D860F2
:1047000010BD1A469B68F1E76C0C0024014B5869F8
:10471000704700BF6C0C0024002310B503800446D2
:1047200083789A0708D513F0100F016B0E4B0FD04A
:10473000D3F88400FFF77DF8A378DB0712D50A4B86
:104740002146D3F8880038B1BDE81040FFF771B8B2
:10475000586FFFF710F8EFE7D3F88000BDE810407E
:10476000FFF709B810BD00BF6C0C002408B500F0BD
:104770002FFEDFF810C000DF4FF0FF31002000F007
:1047800005FEFEE7254C0408C2780346D20701D493
:10479000FFF7C2BF0422054942700022C2604A6B83
:1047A000826002B1D0604B63704700BF6C0C002484
:1047B000930710B502F0010422D400F1280384B15C
:1047C00053E8000F00EA01028A4203D0BFF32F8FA3
:1047D000002005E020EA010243E8002404B1EFE7ED
:1047E00010BD53E8000F084203D1BFF32F8F002004
:1047F00005E020EA010243E8002404B1F1E7EFE715
:10480000806A01EA00031CB1994218BF0020E7E763
:10481000002B08BF0020E3E791F92020836810B542
:104820001BB193F92040944205DAC1E9023081605E
:1048300003B1D96010BD18469B68F1E70346806854
:1048400082689A6002B1D3600023C3607047C26877
:104850002AB18368936003B1DA600023C3607047B4
:1048600010B5044664B12378F12B07D0FFF7EFFFB2
:1048700001462046BDE81040FFF7CEBFE468F1E7EF
:1048800010BD00000123014643700148FFF7C4BF7B
:10489000880C002438B5164DEC6A44B3E369013B3B
:1048A000E36123BB6378732B06D009D8532B0BD05D
:1048B00003F0DF03432B0DD12046FFF7E8FE09E0AC
:1048C00003F0EF03832BF6E720462146FFF7DFFED8
:1048D000FFF7F6FB2046FFF7BAFFFFF7D3FF246987
:1048E00024B1E369002BDDD000236361EC6238BDA5
:1048F0006C0C002490F82230826B13F0100F14BF60
:10490000202060201044704702234370014B9861BF
:10491000704700BF6C0C002470B5124D04462E7A0F
:10492000696990B9022E0FD16C6A6CB194F920209C
:1049300091F920309A4207DD2046FFF788FF0846AC
:10494000FFF7CCFE6670AC6170BD022E05D190F908
:10495000202091F920309A42F1DC2046BDE87040D9
:10496000FFF790BF6C0C00242DE9F74F80460191B2
:1049700040B96FF00301002400F008FD204603B0A9
:10498000BDE8F08F002A00F0A88094689769D2E90A
:1049900000ABD2E9045644B1A10702D1D368432B3E
:1049A00023D86FF008010020E5E7D368002BF8D189
:1049B000002D32D1002F3ED11827002E41D1614B5E
:1049C000D3F88800002800F08E80FEF715FF04461B
:1049D000002800F0A280002D40F0A9804FF00109CE
:1049E0004EB100223146574887E0B5B91FBB002EB3
:1049F0006ED1B9461827544A5248566DD0F88420D3
:104A0000002A79D01046FEF7F7FE054600287AD036
:104A100049F0100949F002031FE06A0700D116B9F6
:104A20006FF00A01BFE7002F52D07B1E372B08D949
:104A30006FF00B01B7E77B1E372BF9D8002E49D05A
:104A4000002516F00703EBD1A6F148013F4A914239
:104A5000E6D8002CB3D0002D62D0A370002340F222
:104A6000F1127FB284F803B02280FD22C4F804A0C2
:104A700084F8207084F8217062846663C4E902338C
:104A8000C4E90433C4E90633C4E90933C4E90B3586
:104A9000A6F140032B44C4E90E382D4B2B602A4B62
:104AA0001B685B0745D4A36B3422002118463DF0F8
:104AB0005FFF284A234BC0E90D284FF08072C26384
:104AC000019A02622046244A1A66FFF725FF55E73D
:104AD0001827B6E774B9354671E792461546182788
:104AE000164693466BE701224421D3F88000FEF777
:104AF0000EFE6CE7B1467EE73146406FFEF707FEDB
:104B00000546002886D1B9F1000F06D00D4B21468D
:104B1000D3F8880030B1FEF78CFE6FF0040142E755
:104B2000A9465EE7D3F88000FEF725FEF5E70123EE
:104B300093E726F00302CC21281D443A3DF018FFEC
:104B4000B1E700BF6C0C0024CCC30808B7FFFF7F9F
:104B5000A52E5AE26D470408DF4B040810B5044641
:104B600028B10278F12A02D14A1E372A07D92046F5
:104B70006FF0030100F00AFC6FF0030010BD4278F3
:104B8000042A06D16FF0020100F000FC6FF0020071
:104B9000F4E74BB290F920209A4201D10020EDE7D2
:104BA00080F8203080F82130FEF751FB2046FFF7D7
:104BB00057FE0020FFF7B0FEF0E738B50546144673
:104BC000FFF798FE01602846FFF768FD1CB1BDE8BD
:104BD0003840FFF7A1BEBDE83840FFF753BE10B51F
:104BE00043780446332B0CD1416A90F82320FFF719
:104BF000DFFD014628B120460022BDE81040FFF746
:104C0000DCBF10BD10B50446806918B10022114602
:104C1000FFF7D3FF6378232B02BFA36800229A61BA
:104C200010BD000070B50F4C267A022E18D1636AB1
:104C3000B3B16569E86AFFF721FA2846FFF7E2FF9A
:104C400004F11C00FFF7FAFD4670A061EFF3098341
:104C5000AB63002328466361BDE87040FFF794BD55
:104C600070BD00BF6C0C002410B5044610B1037871
:104C7000F12B07D020466FF0030100F087FB6FF0A7
:104C8000030010BD437803F00F03022B1ED0032B4B
:104C90002BD0012B2ED1FFF7DAFDE06AFFF7EEF9FA
:104CA0002046FFF7AFFF6178022926D11548FFF7AC
:104CB000C5FD154B41709861EFF30982A263002294
:104CC0005A612046FFF760FD0020DAE70E4B1A7AA2
:104CD000022A02D15B6A002BDFD16FF0020120466D
:104CE00000F054FB6FF00200CBE7FFF7B0FDFFF7D9
:104CF000D5FCD2E76FF00201F2E70020FFF70CFECF
:104D0000DFE700BF880C00246C0C002470B504465B
:104D100020B10378F12B01D1002908DA6FF00305E7
:104D20006FF003012046FEF793FA284670BD4378E2
:104D3000042B06D16FF002016FF00205FEF788FA2E
:104D4000F3E700F1280353E8002F42EA010543E8A6
:104D5000005606B1F7E74378332BE6D1416A90F865
:104D60002320FFF725FD01460028DED094F82330EC
:104D700001229B0756BF656A054620EA05052046C5
:104D8000FFF71BFFD1E7000038B51E4C0246237A1F
:104D9000022B34D1606AA0B163695A704A1C16D1E3
:104DA000226B002172B94FF0FF30C3E90421D861B2
:104DB00059B10B611448FFF741FD02234370A06114
:104DC000012038BD11461269ECE72363F2E7E26A7D
:104DD000002012B1D569A9420BD2D961C3E90420E0
:104DE00058B10361002AE5D0D0695361401AD061FF
:104DF000E0E71046491B1269EBE7E362F2E70020A7
:104E0000DFE700BF6C0C0024880C0024F8B5164BBB
:104E100005460F4616465C693CB920466FF007010F
:104E2000FEF716FA4FF0FF30F8BD002807DA2046EB
:104E30006FF00301FEF70CFA6FF00300F4E70A4687
:104E400001462046FFF7B4FC0028EDD14EB13146B3
:104E50003320656284F82370FFF796FF6FF001003E
:104E6000E2E76FF00200DFE76C0C002438B50D4C70
:104E700000210D48A26DFFF777FD0C4D636EA8620F
:104E80005BB1984758B9E26DE96C206EFFF76CFD95
:104E9000A864003818BF012038BD0120FCE70020BD
:104EA000FAE700BFCCC30808FD5204086C0C0024CC
:104EB00010B50446EFF3058333B100206FF0050110
:104EC00000F064FA002010BDFFF7D6FB0028F4D1F3
:104ED0002046DFF808C000DFF5E700BF6949040895
:104EE00008B5EFF3058313B1054B586908BDFFF70B
:104EF000C3FB0028F8D1DFF80CC000DFF6E700BFE5
:104F00006C0C00240D470408024608B5EFF3058336
:104F10003BB110466FF0050100F038FA6FF0050064
:104F200008BDFFF7A9FB0028F3D11046DFF804C045
:104F300000DFF5E75D4B040810B5044600F054FAB5
:104F4000EFF305833BB120466FF0050100F01EFA38
:104F50006FF0050010BDFFF78FFB0028F3D120464E
:104F6000DFF804C000DFF5E7694C040838B50246F5
:104F70000D46EFF305834BB192B96FF003046FF068
:104F800003011046FEF764F9204638BDFFF774FBB5
:104F90000028F1D11046DFF844C000DF0446F3E7F3
:104FA0001378F12BE9D1002DE7DB5378042B07D1DF
:104FB0006FF0020110466FF00204FEF749F9E3E7D3
:104FC00002F1280353E8001F41EA050443E80040CA
:104FD00000B1F7E71046FFF71DFBD5E70D4D0408BC
:104FE00010B50446EFF305833BB100206FF00501D7
:104FF000FEF72EF96FF0050010BDFFF73DFB00280E
:10500000F3D12046DFF804C000DFF5E70D4E0408B9
:1050100030B50C4D00226B6C13B11C698C420AD95F
:105020000161C0E902231BB11C699860641A1C610C
:105030002AB1D06030BD1A46091BDB68ECE7686412
:10504000F8E700BF6C0C00242DE9F041184D6C6CA2
:1050500054B3236901276E69013B2361236913BBA4
:10506000E3680BB1A2689A606B64002304F1180135
:10507000E86C1A46FEF730FE58B121460320D5E908
:1050800005836B61FEF787FA6B6913B9B04508BFFA
:105090000026E378012B09D161692046FFF7B8FFAC
:1050A0006C6C002CDAD16E61BDE8F0816770F7E7B7
:1050B0006C0C002408B5FEF7FDFD18B9034B044A3B
:1050C0001A6508BD4FF0FF30FBE700BF6C0C0024F1
:1050D00049500408044607B54FF0FF3300226946E3
:1050E0002046FEF739FE0028F6D1DDE9003098476A
:1050F000F2E7000008B5094A094B1A60094B9B1AF0
:10510000094A1360094A0A4B1A600A4B9B1A0A4A59
:10511000136000F05FF800F091F800BF00FC072476
:105120003C410224000008243841022468F1032491
:1051300080F4022400FC07247CF4022438B50E48D5
:105140000B250E4B1C24456003600D4BC46083602F
:10515000FEF7DCFF0B4B18600B480C4BC460C0E93A
:1051600000350B4B8360FEF7D1FF0A4B1860BDE89A
:1051700038403CF0BFBD00BF08410224B4C4080859
:105180001841022434410224D8400224C1C4080832
:10519000E840022404410224FDF75CBC024B4FF0BE
:1051A000FF311868FEF7CABF34410224014B18686A
:1051B000FEF7DCBF34410224024B4FF0FF31186888
:1051C000FEF7BCBF04410224014B1868FEF7CEBFB6
:1051D0000441022408B510F0EFFD0C4B0C4998680F
:1051E0004FF00053C21802F16042126843F8042BDA
:1051F0008B42F7D1054B4FF000529A6023F060FAD2
:1052000024F0DEFDBDE8084000F015B800ED00E038
:10521000980200207047704708B500F043F8FFF788
:10522000F9FFFFF78BFFFFF7F6FF11F08BFEBDE8EC
:105230000840FFF7B1BFFEF7B9B90000114C124B9F
:1052400023614FF4004363614423E3600F4BA36089
:105250001823A3610E4B07B5224600210D48236099
:10526000FFF726FE034628B922460B4900900B485B
:1052700011F078FEFEF7B2F9002309491A460093AF
:10528000F5E700BFA8C10224A8410224604102241E
:10529000CBC4080819520408D0C408081D010180B5
:1052A000ECC408081FB5064B6C460FCB84E80F0012
:1052B0002046FEF72BFF034B186004B010BD00BF63
:1052C00014C508085C41022473B506460C46154611
:1052D00011F03AFE58B90634324628462ABF054B2B
:1052E000054953F824100023009311F03BFE02B04F
:1052F00070BD00BFD8C608082CC6080808B500F065
:10530000F7F8000007B50023411E02460093002372
:10531000042919D8DFE801F003080C101400012259
:105320000B490C4811F01EFE02220B490B48F9E70D
:1053300003220B490B48F5E704220B490B48F1E720
:1053400005220B490B48EDE70B490C48EAE700BF83
:1053500024C508082501028045C5080826010280E9
:105360006AC50808270102809FC508082801028035
:10537000DAC508082A0102801AC60808000102805E
:105380000146014AFFF7A0BF31010180014AFFF742
:105390009BBF00BF32010180014AFFF795BF00BFEC
:1053A00037010180014AFFF78FBF00BF3301018041
:1053B00011F1110F02D0024AFFF786BF704700BFFC
:1053C00034010180014AFFF77FBF00BF380101802F
:1053D00010B5FFF785FD034B1B6813B1BDE8104006
:1053E000184710BDCCC10224024B1B6803B11847FB
:1053F000704700BFCCC10224024B987A003818BF16
:10540000012070476C0C002408B5FEF72BF9002230
:10541000064911F075FFC31C04D98B2204490548C5
:1054200011F014FBBDE80840FEF730B9F953040849
:1054300013C7080825C70808B0F57A7F10B50C46D1
:1054400004D0322219491A4811F000FB10F0B8FFBD
:105450000028184A16DB00F16043F02103F5614390
:1054600083F80013916800F1100341F82340BFF363
:105470004F8F926852F823309C420AD03F220B494A
:105480000D48E1E700F00F03F021043B13441976C7
:10549000E8E7002807DB0123410900F01F00074A65
:1054A000834042F82130002010BD00BF13C7080818
:1054B00052C7080800ED00E05FC7080800E100E0FF
:1054C00008B511F0A5FEBDE8084010F0D7BF0000F8
:1054D000014B186810F09ABFB0F30224014B186812
:1054E00010F086BFB0F3022408B510F069FF08BDC4
:1054F000024C08B523689847FCE700BF100D002454
:1055000003680BB108461847704738B50D4610229E
:10551000002104463DF02CFAEB68E3601BB15B68A8
:10552000294620469847204638BD0000044B0022FB
:10553000C3E900229A601A61024ADA60704700BF2C
:10554000D0C102240155040838B50D460021044697
:10555000102200F8011B3DF00BFA2046658238BD91
:1055600042F60211024808B5FFF7EEFF08BD00BF82
:10557000E4C10224C36810B52BB94FF4FD7204498D
:10558000044811F063FA1B68BDE81040184700BFDB
:10559000B0C70808BBC7080808B5FBF77DFA08BD07
:1055A000C36810B52BB94FF4FD720449044811F0DB
:1055B0004DFA1B68BDE81040184700BFB0C7080887
:1055C000BBC70808C36810B52BB94FF4FD72044976
:1055D000044811F03BFA1B68BDE81040184700BFB3
:1055E000B0C70808BBC7080810B40168D0E9013289
:1055F000541001EB6200D20748BF0A595DF8044B12
:1056000048BFD35818470000C36810B52BB94FF4F2
:10561000FD720449044811F019FA1B68BDE81040F6
:10562000184700BFB0C70808BBC7080810B5044634
:1056300012F0FAFC204610BD10B5084C204612F0BE
:10564000B5FC00232046064A84F82430236305492C
:10565000C4E90A33BDE8104011F0B4BFF8C1022418
:10566000000000242D56040802686F4B9A42F0B5E2
:1056700093B040F0D68021F055FC6C4A0023C2F86C
:105680008430BFF34F8F536923F480335361BFF3EA
:105690004F8FD2F8803043F6E074C3F3C900C3F3F0
:1056A0004E335B0103EA0406014646EA817501397F
:1056B000C2F87452F9D2203B13F1200FF2D1BFF39C
:1056C0004F8FBFF36F8F5A4B012500244FF40046D4
:1056D000D3F8E0200DA95748802742F00102C3F813
:1056E000E020D3F8E02002F001020192019AD3F801
:1056F000E02042F00402C3F8E020D3F8E02002F0FA
:1057000004020292029AD3F8E02042F04002C3F869
:10571000E020D3F8E02002F040020392039AD3F88D
:10572000D82042F40042C3F8D820D3F8D82002F49D
:1057300000420492049AD3F8D82042F48032C3F88D
:10574000D820D3F8D82002F480320592059AD3F8F5
:10575000D82042F40032C3F8D820D3F8D82002F47D
:1057600000320692069AD3F8E02042F40072C3F8A1
:10577000E020D3F8E03003F400730793079BCDE9F2
:105780000D65CDE90F441CF01FFF30230DA92A48F9
:105790000D931CF019FF2A46102127481DF00EF822
:1057A0002A46202124481DF009F80DA923480D9709
:1057B0001CF00AFF2A463946204802271CF0FEFF4B
:1057C00019201AF05DFF314622461A481CF0F6FFF8
:1057D00064201AF055FF2A46314616481CF0EEFFA9
:1057E00003264FF460530B2508A915480A94CDE908
:1057F0000837CDE90B651CF0E7FE322308A90E48F7
:105800000C95CDE90837CDE90A461CF0DDFE86236C
:1058100008A90A480C95CDE90837CDE90A461CF0DD
:10582000D3FE13B0F0BD00BF0080024000ED00E0E9
:105830000044025800240258000802580000025890
:105840000018025830B570B1CC6864B18A6852B1A2
:105850000B6943B10D6849688560C1608361C0E927
:105860000424002030BD4FF0FF30FBE773B5002368
:1058700046680446019366B1A36998470546A36943
:105880009847431BB3F5FA6FF9D9012300256360EC
:105890002EE0836803B198472023002523606369C5
:1058A00001AA122130469847002817DB019B03F01C
:1058B0001F03B34214D1266023694FF40042002134
:1058C00030469847002834DB636901AA002120682C
:1058D000984700280FDA6FF0040509E06FF004051F
:1058E0000136202EDBD126681F2E1FD8002DE3D0D5
:1058F000284602B070BDA369002598470646019B63
:105900001B0402D4002DB7D0F2E7A3699847801B8F
:10591000B0F5FA7F07D8636901AA0021206898478B
:105920000028ECDAD7E76FF00105E8E76FF0020531
:10593000DEE76FF00305DBE737B500254369044672
:1059400001AA0121006801959847A84203DA6FF087
:10595000040003B030BD636901AA012120689847A3
:105960000028F4DB019B5B072CD5636901AA29465B
:10597000206898470028EADB019BDD040ED403F47D
:105980000452B2F5045F01D10220E2E7980401D588
:105990000320DEE7D90513D40520DAE7636901AAFD
:1059A0001F21206898470028D1DB019BDA040BD522
:1059B00003F01C03182BE7D0082BE9D0142BEBD1F4
:1059C0000420C6E70120C4E70620C2E740F2DC500D
:1059D0007047002070470620704770477047C0F836
:1059E0006C1170470020704722F018BCF0B500F52C
:1059F00082769FB00C460746304612F0DFFA7822D6
:105A0000002168463CF0B4FF6A461CBB2546194994
:105A10003222381D4D60C1F808D01CF01CF9B0FAD4
:105A200080F56D09A37B012B02D9204605F0E3FE2A
:105A3000304612F0DFFA28461FB0F0BD0C3258682D
:105A4000106058891B680544506039B973B10C3235
:105A50000121F4E7002523462946F0E742F8042C0B
:105A600023B101310A29E9D10025DBE70023936046
:105A7000CDE700BFB0C30224032A0846024928BF6D
:105A800003223CF077BE00BFE007090811F080BC9C
:105A90004FF4FD720249034808B510F0D7FF00BF6C
:105AA000B0C70808BBC7080810B40168D0E90132C4
:105AB000541001EB6200D20748BF0A595DF8044B4D
:105AC00048BFD358184700000A4B10B5044603607E
:105AD00000F5AE70FAF7E0FF04F5A670FAF7DCFF08
